:100000000C9463000C948B000C948B000C948B006C
:100010000C948B000C948B000C948B000C948B0034
:100020000C948B000C948B000C948B000C941B068E
:100030000C948B000C948B000C948B000C948B0014
:100040000C94D1050C948B000C948B000C948B00B9
:100050000C948B000C948B000C948B000C948B00F4
:100060000C948B000C948B000000000025002800ED
:100070002B0000000008000201000003040700003C
:1000800000000000000000000000240027002A00FB
:10009000010204081020408001020408102001021F
:1000A000040810200000000023002600290004049A
:1000B0000404040404040202020202020303030310
:1000C00003034906450C11241FBECFEFD8E0DEBF65
:1000D000CDBF11E0A0E0B1E0E6EEF2E202C0059093
:1000E0000D92AA3AB107D9F722E0AAEAB1E001C01D
:1000F0001D92AB31B207E1F710E0C2E6D0E004C0D8
:100100002197FE010E94880EC136D107C9F70E94CF
:10011000CC060C9466110C940000AF92BF92CF9263
:10012000DF92EF92FF920F931F93CF93DF936C01B7
:100130007B018B01040F151FEB015E01AE18BF0898
:10014000C017D10759F06991D601ED91FC9101904A
:10015000F081E02DC6010995892B79F7C501DF9162
:10016000CF911F910F91FF90EF90DF90CF90BF90B4
:10017000AF900895833081F028F4813099F0823077
:10018000A9F008958730A9F08830C9F08430B1F41F
:10019000809180008F7D03C0809180008F77809355
:1001A0008000089584B58F7784BD089584B58F7DD0
:1001B000FBCF8091B0008F778093B000089580913D
:1001C000B0008F7DF9CF1F93CF93DF93282F30E0BE
:1001D000F901EE58FF4F8491F901E057FF4FD49198
:1001E000F901E255FF4FC491CC23A9F0162F8111DC
:1001F0000E94BA00EC2FF0E0EE0FFF1FE859FF4F0E
:10020000A591B4918FB7F894EC91111108C0D095D5
:10021000DE23DC938FBFDF91CF911F910895DE2BFA
:10022000F8CF1F93CF93DF93EC0160E08091F6014C
:100230000E94E3008091F701882309F452C0809165
:10024000D301882361F08FB7F8949091D301913056
:10025000B9F59DB39093D2019DB39DBB8FBF88E547
:100260008CBD81E08DBD60E08091F6010E94E300CD
:100270009C2F8D2F0CB405FC26C0DEBD00000DB4F4
:1002800007FEFDCF8EB59EBD00000DB407FEFDCF6D
:100290008EB561E08091F6010E94E3008091D30168
:1002A000882351F09FB7F8942091D3018091D20117
:1002B0002130A9F48DBB9FBFDF91CF911F9108958D
:1002C0008093D201CCCFCEBD00000DB407FEFDCF90
:1002D0009EB58EBD00000DB407FEFDCFD9CF8FBFF8
:1002E000EBCF60E08091F6010E94E30010E16D2FFA
:1002F000661F6627661F8091F4010E94E30060E09C
:100300008091F5010E94E30061E08091F5010E9477
:10031000E300CC0FDD1F115051F760E08091F40134
:100320000E94E30061E08091F601DF91CF911F917F
:100330000C94E3000F931F93CF93DF93EC01CB0159
:10034000BA01FE01EE0FFF1FEE0FFF1FE851FE4F37
:10035000608371838283938320E030E040E85DE432
:100360000E94F90D20E23CEB4EEB5BE40E94CA0CCC
:1003700020E030E040E05FE30E945E0C0E943C0D14
:100380008E01000F111F000F111FF801EC52FE4FDC
:100390006283738384839583219709F1C0E0D0E45D
:1003A0007F73CB018C2B9D2B0E941101F801EC5225
:1003B000FE4F82819381A481B5812EE0B695A795E9
:1003C000979587952A95D1F79F738C2B9D2B0E942B
:1003D000110181E0DF91CF911F910F910895C0E04D
:1003E000D0E8DECF9093E7018093E6012091D4011D
:1003F0003091D50182309105D1F078F40197A9F0C0
:10040000206C3093D5012093D4018091D401909138
:10041000D5010E94110181E008958330910551F0CA
:10042000049771F72F712260ECCF2D71EACF2D73F5
:100430002862E7CF25732062E4CFCF93DF9390E06B
:10044000FC01E057FF4F249182559F4FFC0184919E
:100450008823D1F090E0880F991FFC01EA57FF4FE5
:10046000A591B491FC01E859FF4FC591D491623038
:1004700071F49FB7F8943C91822F809583238C93DD
:10048000E8812E2B28839FBFDF91CF9108958FB7EE
:10049000F894EC912E2B2C938FBFF6CF3FB7F894A6
:1004A0008091BB019091BC01A091BD01B091BE01B2
:1004B00026B5A89B05C02F3F19F00196A11DB11DBF
:1004C0003FBFBA2FA92F982F8827BC01CD01620FFB
:1004D000711D811D911D42E0660F771F881F991FB6
:1004E0004A95D1F708958F929F92AF92BF92CF9283
:1004F000DF92EF92FF920E944E024B015C0188EE68
:10050000C82E83E0D82EE12CF12C0E944E026819EF
:1005100079098A099B09683E734081059105A8F312
:1005200021E0C21AD108E108F10888EE880E83E0C4
:10053000981EA11CB11CC114D104E104F10429F7D7
:10054000FF90EF90DF90CF90BF90AF909F908F90F3
:100550000895089590E080E00895CF93DF93E6E753
:10056000F0E08491E4E9F0E0D491E2EBF0E0C491B2
:10057000CC23A9F081110E94BA00EC2FF0E0EE0F1D
:10058000FF1FEC55FF4FA591B491EC918091B10103
:10059000ED2329F0811145C0DF91CF91089580911D
:1005A000B101811116C081E08093B1012FB7F89499
:1005B0008091B7019091B801A091B901B091BA01B1
:1005C0002FBF8093AD019093AE01A093AF01B09384
:1005D000B0012FB7F8948091B7019091B801A09124
:1005E000B901B091BA012FBF4091AD015091AE0158
:1005F0006091AF017091B001841B950BA60BB70BF6
:10060000853F9140A105B10538F28091AC0181117F
:10061000C3CF81E08093AC011092C9018093D001D7
:10062000BBCF8091AC01882329F01092AC011092CD
:10063000B101B2CF81E08093C9018093D001F7CF9F
:100640000F931F93A0E1B2E0ED91FD918081ED91B8
:10065000FD919081ED91FD916C9163708E2309F075
:1006600064609F2309F06860E0E4F3E0E60FF11DA9
:10067000659565956D936D917D918D919D91099491
:1006800023C01AC012C016C010C01EC009C014C0BA
:1006900013C006C019C009C00DC007C00DC014C0EA
:1006A00062507040804090400BC06150704080406C
:1006B000904006C06E5F01C06F5F7F4F8F4F9F4FAE
:1006C0009E938E937E936E934091170250911802E1
:1006D0006091190270911A020091000110910101BC
:1006E00020910201309103010417150726073707EF
:1006F00029F18091AA019091AB0101969093AB01F1
:100700008093AA01049791F4401751076207730779
:10071000C4F482E090E09093CD018093CC0181E01D
:100720008093D1011092AB011092AA014093000175
:100730005093010160930201709303011F910F9187
:10074000089581E090E09093CD018093CC01E8CFB3
:10075000CF93DF93EC0160E08E810E94E30061E0C3
:100760008E810E94E30060E08E810E94E3008BE8AE
:1007700091E00197F1F7DF91CF910895CF92DF9249
:10078000EF92FF920F931F93CF93DF936C017C0145
:1007900087E0E80EF11CD0E0C0E0062F10E0B801C1
:1007A0000C2E02C0759567950A94E2F76170F70107
:1007B00081917F010E94E3002196C430D10579F731
:1007C000C601DF91CF911F910F91FF90EF90DF90C5
:1007D000CF900C94A803CF92DF92EF92FF920F93E9
:1007E0001F93CF93DF93EC01F62E642F8C810E9430
:1007F000E3008D818F3F19F060E00E94E3000F2D30
:1008000010E08F8584FF25C06E0187E0C80ED11CE3
:10081000F12CE12CB8010E2C02C0759567950A9455
:10082000E2F76170F60181916F010E94E300FFEF32
:10083000EF1AFF0A88E0E816F10461F7CE01DF91B4
:10084000CF911F910F91FF90EF90DF90CF900C947C
:10085000A803B80184E0759567958A95E1F7CE0104
:100860000E94BE036F2DCE01DF91CF911F910F919A
:10087000FF90EF90DF90CF900C94BE0340E0682F84
:1008800088EF91E00C94EB0381E00E943E048BE33F
:100890009FE10197F1F70895CF93DF93823029F418
:1008A0009091070298609093070280930B02109238
:1008B0000C0280E480930D0280E180930E0280E5BB
:1008C00080930F0261E08091FC010E941D028091E3
:1008D000FD018F3F19F061E00E941D0261E08091EF
:1008E000FE010E941D02C8EFD1E09E01285F314049
:1008F0008091070284FD0BC084E090E021962817C8
:10090000390744F461E08E810E941D02EECF88E039
:1009100090E0F4CF8BE39DE00197F1F760E08091E8
:10092000FC010E94E30060E08091FE010E94E30070
:100930008091FD018F3F19F060E00E94E3008091FB
:10094000070284FD34C063E088EF91E00E94BE039B
:10095000CBE4D6E4CE010197F1F763E088EF91E0B4
:100960000E94BE032197F1F763E088EF91E00E94B7
:10097000BE0383E592E00197F1F762E088EF91E032
:100980000E94BE038091070280620E943E0484E0C0
:10099000809308028CE00E943E040E94440482E09E
:1009A0008093090286E0DF91CF910C943E0480622F
:1009B0000E943E048BE496E40197F1F780910702D0
:1009C00080620E943E0483E592E00197F1F78091F6
:1009D000070280620E943E04D5CF90910B026917F6
:1009E00010F06FEF690FE62FF0E0E850FE4F9489AA
:1009F000890F80680C943E0441E00E94EB0381E083
:100A000090E008950F931F93CF93DF938B0128E01D
:100A1000829FC001112480640E943E04E801085FA7
:100A20001F4F699188EF91E00E94FC04C017D10725
:100A3000C1F7DF91CF911F910F910895FC010190B3
:100A40000020E9F73197AF01481B590BBC0188EF33
:100A500091E00C948D008091220161E0882339F0AF
:100A60008EE00E94ED0480E391E00C941E058DE081
:100A70000E94ED0483E391E0F8CF60E08DE00E94F6
:100A8000ED048091C7019091C801009721F487E39C
:100A900091E00C941E05019719F48BE391E0F9CFD6
:100AA0008FE391E0F6CF9091230161E0911112C0A4
:100AB000882351F081E00E94ED048091C1018111F1
:100AC00005C083E491E004C080E0F5CF89E491E0C3
:100AD0000C941E05882349F081E00E94ED0461E03A
:100AE00088EF91E00E94FC04ECCF80E0F6CFCF923B
:100AF000DF92EF92FF920F931F93CF93DF93CDB7C7
:100B0000DEB7A1970FB6F894DEBF0FBECDBF60E091
:100B1000882309F444C081E00E94ED0420911D0166
:100B200030911E0140911F015091200119A28E01A8
:100B30000F5D1F4F8AE0C82ED12CE12CF12CCA0189
:100B4000B901A70196010E94660E605DF8016293EB
:100B50008F01211531054105510589F7309761F065
:100B600001900020E9F73197AF01401B510BB8010C
:100B700088EF91E00E948D008FE491E00E941E05B5
:100B8000A1960FB6F894DEBF0FBECDBFDF91CF9117
:100B90001F910F91FF90EF90DF90CF90089580E02C
:100BA000BBCF1F920F920FB60F9211242F933F933A
:100BB0008F939F93AF93BF938091B7019091B801AA
:100BC000A091B901B091BA013091B60123E0230F91
:100BD0002D3758F50196A11DB11D2093B6018093C4
:100BE000B7019093B801A093B901B093BA01809175
:100BF000BB019091BC01A091BD01B091BE010196D5
:100C0000A11DB11D8093BB019093BC01A093BD01B8
:100C1000B093BE01BF91AF919F918F913F912F9162
:100C20000F900FBE0F901F90189526E8230F029685
:100C3000A11DB11DD2CF1F920F920FB60F9211249A
:100C40002F933F934F935F936F937F938F939F93D4
:100C5000AF93BF93EF93FF930E9420030E94AD02D6
:100C60001092B5011092B4011092B3011092B2012A
:100C7000FF91EF91BF91AF919F918F917F916F9174
:100C80005F914F913F912F910F900FBE0F901F904A
:100C90001895CF93DF931092FB011092FA0188E22E
:100CA00091E09093F9018093F80185E08093FC0135
:100CB0008FEF8093FD0186E08093FE0187E08093B3
:100CC000FF0188E08093000289E0809301028CE0BC
:100CD0008093020210920302109204021092050205
:100CE000109206021092070281E00E944C048BE0F1
:100CF0008093F4018DE08093F5018AE08093F60102
:100D00001092F70162E082E00E941D0262E083E03F
:100D10000E941D02E0EBF0E0E491F0E0EE0FFF1F17
:100D2000EC55FF4FA591B491B0931102A09310021E
:100D3000E2E9F0E0449140931402E1EBF0E0E49149
:100D4000F0E0EE0FFF1FEC55FF4FC591D491D0930B
:100D50001302C0931202E3E9F0E0E491E09315027C
:100D600010921702109218021092190210921A0291
:100D70002BE33FE1C9010197F1F79C91842F89236F
:100D800091E009F490E08881E82309F09260909363
:100D90001602DF91CF910895CF93DF93CDB7DEB7E1
:100DA00064970FB6F894DEBF0FBECDBF789484B5BC
:100DB000826084BD84B5816084BD85B5826085BD57
:100DC00085B5816085BD80916E00816080936E00E5
:100DD00010928100809181008260809381008091D7
:100DE0008100816080938100809180008160809388
:100DF00080008091B10084608093B1008091B00048
:100E000081608093B00080917A00846080937A0042
:100E100080917A00826080937A0080917A0081606C
:100E200080937A0080917A00806880937A00109293
:100E3000C10062E084E00E941D0282E00E944C0436
:100E40008091F701882309F455C11FB7F894809168
:100E5000BF01811127C0E8EBF0E08491EAE9F0E0FE
:100E60009491E82FF0E0EE0FFF1FEA57FF4FA59196
:100E7000B491EC91E92321F461E08AE00E94E3005F
:100E800061E08AE00E941D028CB580618CBD8CB54A
:100E900080648CBD61E08DE00E941D0261E08BE00A
:100EA0000E941D028091BF018F5F8093BF011FBF11
:100EB00061E08091F6010E941D0261E08091F601DF
:100EC0000E94E30080E091E29093D5018093D401E9
:100ED0000E94110140E050E06AE774E490E080E095
:100EE0000E949A0140E050E06AE774E481E090E0FB
:100EF0000E949A011092F1011092F0011092DE010D
:100F00001092DF011092E0011092E10180E090EC7C
:100F10000E9411011092F3011092F2011092E2016D
:100F20001092E3011092E4011092E50180E090EE4E
:100F30000E9411018091D4019091D5019E7F9093E0
:100F4000D5018093D4010E94110181E090E00E94BC
:100F5000F2018091D4019091D501977F9093D501B2
:100F60008093D4010E9411018091D4019091D50108
:100F70009B7F9093D5018093D4010E9411016091D1
:100F80001D0170911E0180911F01909120010E940E
:100F90006B0DAB01BC0190E080E00E949A01809152
:100FA000D4019091D501977F9093D5018093D4017E
:100FB0000E94110164E171E080E00E9402056CE092
:100FC00071E081E00E94020564E071E082E00E942D
:100FD0000205F8941092800088E08093810080914F
:100FE000810083608093810088E190E09093890084
:100FF00080938800109285001092840080916F0089
:10100000826080936F00789460E080E00E94ED043D
:1010100082E591E00E941E0561E080E00E94ED04FF
:101020008FE591E00E941E0589E691E00E941E0571
:101030000E9473020E9473021092CF011092CE019F
:101040001092C8011092C7011092C6011092C501FA
:101050001092CB011092CA010E94AD020E9420039F
:101060000E94440480E00E94770580E00E945305BE
:101070000E943D050E942B052EE6222E21E0322EF5
:1010800031E7432E31E0532E8E010F5F1F4F42E0B8
:10109000642E712C56E0C52ED12C65E0A62EB12C05
:1010A00087E0E82EF12C90E0892E90E0992E809137
:1010B000D101811104C08091D0018823A9F00E9440
:1010C00044048091CE019091CF018230910509F4C2
:1010D0008EC204F5009709F45AC0019709F441C182
:1010E0001092D0011092D1018114910401F30E9459
:1010F0000000D6CF61E08091F4010E941D0260E003
:101100008091F5010E94E30061E08091F5010E9469
:101110001D02CECE8530910509F423C3863091059A
:1011200009F469C30397E1F68091D001882339F06F
:101130008091C901882309F4FAC21092D0018091EC
:10114000D101882369F08091CC019091CD0181304B
:10115000910509F000C381E08093C2011092D10192
:1011600060E081E00E94ED0489E891E00E941E05A4
:1011700061E081E00E94ED0483E991E00E941E0598
:101180008091C201882309F48DC261E08CC28091F4
:10119000D1018823E9F08091CA019091CB0120917F
:1011A000CC013091CD012130310589F50196909324
:1011B000CB018093CA018091CA019091CB01853007
:1011C000910551F51092CB011092CA011092D101F4
:1011D0008091CA019091CB01009739F580E00E947F
:1011E000770580E00E9453050E943D050E942B0573
:1011F0008091D001882309F473CF8091C90188239D
:1012000009F46ECFD092CF01C092CE0169CF2230C7
:10121000310589F60197CBCF0196C1F684E090E0C5
:101220009093CB018093CA01D1CF81309105E1F435
:101230002091D001222341F02091C901222321F0E5
:101240009093CF018093CE0160E088EF91E00E94FF
:10125000FC0481E00E94770580E00E9453050E9413
:101260003D050E942B053CCF82309105C9F42091A9
:10127000D001222341F02091C901222321F0909333
:10128000CF018093CE0180E00E94770560E08CE082
:101290000E94ED0460E088EF91E00E94FC04DCCF46
:1012A0008330910511F52091D001222361F0209126
:1012B000C901222341F020912301211104C0909300
:1012C000CF018093CE0180E00E94770581E00E94EB
:1012D00053050E943D0561E080E00E94ED0460E05E
:1012E00088EF91E00E94FC04BCCF049709F0F8CE8F
:1012F0008091D0018823B1F08091C901882391F0B9
:101300008091220191E0892780932201882321F195
:101310008091C7019091C801009799F481E090E015
:101320000E94F20180E00E94770580E00E94530550
:101330000E943D058091220161E0882381F08DE0CB
:10134000CCCF8130910519F484E090E0E9CF029789
:1013500049F782E090E0E4CF90E080E0E1CF8CE0DC
:10136000BCCF8091D001882369F08091C90110928F
:10137000D001882309F467C08091210191E0892779
:10138000809321018091D101882309F1E091C50169
:10139000F091C6012091CC013091CD0180912101C5
:1013A000811171C02130310509F05FC03196F09391
:1013B000C601E093C5018091C5019091C6018830B6
:1013C000910509F058C01092C6011092C501809194
:1013D000C5019091C6018830910509F000C11092B5
:1013E000C6011092C501809120018F9380911F0149
:1013F0008F9380911E018F9380911D018F933F9257
:101400002F925F924F921F930F930E948E0EC801EE
:101410000E941E058FE491E00E941E0561E080E0BD
:101420000E94ED048091C50161E08E5F0E94ED0491
:1014300062E088EF91E00E94FC040FB6F894DEBFF2
:101440000FBECDBF4DCE1092CB011092CA0180913C
:101450002301882329F01092CF011092CE012FCEC4
:10146000B092CF01A092CE012ACE2230310509F0F0
:10147000A2CF31979CCF019609F0B5CFF092C6016B
:10148000E092C501A4CF80911D0190911E01A09111
:101490001F01B09120012130310509F067C0E8300B
:1014A000F105C0F4EA5AF54F0C94880E5E0A950ACD
:1014B0009A0A9F0AA40AA90AAE0AB20A8058994653
:1014C000A746BF4F80931D0190931E01A0931F015B
:1014D000B093200180911D0190911E01A0911F01E8
:1014E000B091200181389649A849B10540F0109289
:1014F0001D0110921E0110921F0110922001809177
:101500002301882309F463CF60911D0170911E01AE
:1015100080911F01909120010E946B0DAB01BC01D5
:1015200090E080E00E949A0152CF805C9D4BA04FDA
:10153000BF4FC8CF80569947AE4FBF4FC3CF805FD4
:10154000984DAF4FBF4FBECF88519C4FAF4FBF4F4D
:10155000B9CF8C599F4FAF4FBF4FB4CF0A96A11D43
:10156000B11DB0CF0196A11DB11DACCF2230310508
:1015700031F6E830F10508F0ADCFEF53F54F0C949C
:10158000880EC90ACE0AD30AD80ADD0AE20AE70A97
:10159000EB0A80589649A849B10994CF80549244E7
:1015A000AF40B1098FCF805A9648A140B1098ACF88
:1015B00080519742A109B10985CF885E9340A10966
:1015C000B10980CF84569109A109B1097BCF0A974F
:1015D000A109B10977CF0197A109B10973CF01968C
:1015E00009F001CFF092C601E092C501FCCE8091D6
:1015F000D001882339F08091C901882309F455C0AE
:101600001092D0018091D1018823F9F02091CC0172
:101610003091CD018091C3019091C40121303105F9
:1016200009F06AC001969093C4018093C301809130
:10163000C3019091C4018330910509F063C01092F9
:10164000C4011092C3011092D10160E081E00E94B8
:10165000ED0487E391E00E941E0560E086E00E94B1
:10166000ED048BE391E00E941E0560E08CE00E9497
:10167000ED048FE391E00E941E0561E080E00E948E
:10168000ED0489E791E00E941E058091C3019091CD
:10169000C40181309105F1F18230910509F444C013
:1016A000892BE1F560E080E037C08091C301909123
:1016B000C4019093C8018093C70120912201222385
:1016C000C1F0009759F481E090E00E94F20110927D
:1016D000D0011092CB011092CA01BDCE813091058C
:1016E00019F484E090E0F1CF029789F782E090E06E
:1016F000ECCF90E080E0E9CF2230310509F097CFC0
:10170000019791CF019609F09ECF7092C40160922B
:10171000C30199CF60E085E00E94ED0460E088EFAE
:1017200091E00E94FC04DCCC60E08BE0F5CF2091DE
:10173000C2012093C1018091D4019091D501211162
:1017400008C0977F9093D5018093D4010E94110126
:10175000BECF9860F7CF029709F000CD1092C2017A
:10176000FDCC8091D001882331F08091C90188237C
:1017700029F11092D0018091D101882361F08091EC
:10178000CC019091CD018130910581F581E080936C
:10179000C0011092D10160E081E00E94ED0489E86F
:1017A00091E00E941E0561E081E00E94ED0483E962
:1017B00091E00E941E058091C001E4CC60911D0162
:1017C00070911E0180911F01909120010E946B0D6C
:1017D000AB01BC018091C001811105C090E080E0A7
:1017E0000E949A0174CF81E090E0FACF029789F6C7
:1017F0001092C001CECF8091D001882331F080912A
:10180000C9018823C1F11092D0018091D1018823B0
:1018100061F08091CC019091CD018130910581F5ED
:1018200081E080931C011092D10160E081E00E9470
:10183000ED0480E391E00E941E0561E081E00E94DA
:10184000ED0483E391E00E941E0560E089E00E94C0
:10185000ED048DE991E00E941E0561E08CE00E949C
:10186000ED0485EA91E00E941E0580911C01882309
:1018700009F48BCC17CF80911C018093230127CFD3
:10188000029789F610921C01CECF8091F701882330
:1018900099F09FB7F8948091BF01882319F0815087
:1018A0008093BF018091BF01811105C08CB58F7BF2
:1018B0008CBD1092D3019FBF08955058BB27AA2713
:1018C0000E94750C0C94BF0D0E94B10D38F00E945F
:1018D000B80D20F039F49F3F19F426F40C94AE0DA6
:1018E0000EF4E095E7FB0C94A80DE92F0E94D00DB3
:1018F00058F3BA17620773078407950720F079F445
:10190000A6F50C94F20D0EF4E0950B2EBA2FA02D37
:101910000B01B90190010C01CA01A0011124FF279C
:10192000591B99F0593F50F4503E68F11A16F04097
:10193000A22F232F342F4427585FF3CF4695379596
:101940002795A795F0405395C9F77EF41F16BA0B5B
:10195000620B730B840BBAF09150A1F0FF0FBB1F09
:10196000661F771F881FC2F70EC0BA0F621F731F52
:10197000841F48F4879577956795B795F7959E3FAF
:1019800008F0B0CF9395880F08F09927EE0F979540
:10199000879508950E94DE0C0C94BF0D0E94B80D2F
:1019A00058F00E94B10D40F029F45F3F29F00C94EB
:1019B000A80D51110C94F30D0C94AE0D0E94D00D96
:1019C00068F39923B1F3552391F3951B550BBB276E
:1019D000AA2762177307840738F09F5F5F4F220FB3
:1019E000331F441FAA1FA9F335D00E2E3AF0E0E8AA
:1019F00032D091505040E695001CCAF72BD0FE2FF4
:101A000029D0660F771F881FBB1F26173707480787
:101A1000AB07B0E809F0BB0B802DBF01FF2793583F
:101A20005F4F3AF09E3F510578F00C94A80D0C944E
:101A3000F30D5F3FE4F3983ED4F386957795679571
:101A4000B795F7959F5FC9F7880F911D9695879574
:101A500097F90895E1E0660F771F881FBB1F621793
:101A600073078407BA0720F0621B730B840BBA0B51
:101A7000EE1F88F7E09508950E94D80D88F09F57D3
:101A800098F0B92F9927B751B0F0E1F0660F771FA2
:101A9000881F991F1AF0BA95C9F714C0B13091F098
:101AA0000E94F20DB1E008950C94F20D672F782F8B
:101AB0008827B85F39F0B93FCCF38695779567955D
:101AC000B395D9F73EF490958095709561957F4FC9
:101AD0008F4F9F4F0895E89409C097FB3EF490956F
:101AE0008095709561957F4F8F4F9F4F9923A9F0F7
:101AF000F92F96E9BB279395F69587957795679586
:101B0000B795F111F8CFFAF4BB0F11F460FF1BC0C9
:101B10006F5F7F4F8F4F9F4F16C0882311F096E95C
:101B200011C0772321F09EE8872F762F05C066230A
:101B300071F096E8862F70E060E02AF09A95660FC3
:101B4000771F881FDAF7880F9695879597F908957C
:101B500097F99F6780E870E060E008959FEF80EC60
:101B6000089500240A941616170618060906089503
:101B700000240A9412161306140605060895092E69
:101B80000394000C11F4882352F0BB0F40F4BF2BD8
:101B900011F460FF04C06F5F7F4F8F4F9F4F089518
:101BA00057FD9058440F551F59F05F3F71F047950E
:101BB000880F97FB991F61F09F3F79F087950895F3
:101BC000121613061406551FF2CF4695F1DF08C012
:101BD000161617061806991FF1CF8695710561052F
:101BE00008940895E894BB2766277727CB0197F9D7
:101BF00008950E940C0E0C94BF0D0E94B10D38F098
:101C00000E94B80D20F0952311F00C94A80D0C94AF
:101C1000AE0D11240C94F30D0E94D00D70F3959F1E
:101C2000C1F3950F50E0551F629FF001729FBB27D3
:101C3000F00DB11D639FAA27F00DB11DAA1F649F6F
:101C40006627B00DA11D661F829F2227B00DA11D22
:101C5000621F739FB00DA11D621F839FA00D611DA8
:101C6000221F749F3327A00D611D231F849F600DC9
:101C7000211D822F762F6A2F11249F5750409AF0F2
:101C8000F1F088234AF0EE0FFF1FBB1F661F771F7E
:101C9000881F91505040A9F79E3F510580F00C9449
:101CA000A80D0C94F30D5F3FE4F3983ED4F38695B2
:101CB00077956795B795F795E7959F5FC1F7FE2BE9
:101CC000880F911D9695879597F90895A1E21A2E90
:101CD000AA1BBB1BFD010DC0AA1FBB1FEE1FFF1FD0
:101CE000A217B307E407F50720F0A21BB30BE40B20
:101CF000F50B661F771F881F991F1A9469F7609567
:101D00007095809590959B01AC01BD01CF01089520
:101D1000EE0FFF1F0590F491E02D0994AEE0B0E0C6
:101D2000E4E9FEE00C943D110D891E8986E08C8368
:101D30001A8309838FEF9FE79E838D83AE01475EF1
:101D40005F4F6F89788DCE0101960E94B10E2F8171
:101D50003885020F131FF80110822E96E4E00C94D0
:101D60005911ABE0B0E0E7EBFEE00C942F117C01E1
:101D70003B018A01FC0117821682838181FFC8C161
:101D8000CE0101965C01F7019381F30193FD8591EA
:101D900093FF81913F01882309F453C1853239F4BF
:101DA00093FD859193FF81913F01853229F4B7011D
:101DB00090E00E94A110E7CF912C212C312CFFE163
:101DC000F31538F08B3211F190F4803209F183323F
:101DD00029F137FC3CC020ED280F2A3050F536FEA3
:101DE00020C08AE0989E200D1124922E06C08D32CC
:101DF00091F0803371F7689430F8F30193FD859189
:101E000093FF81913F018111DACF21C0689431F8AD
:101E1000689432F8F2CF689433F8EFCF689434F8CE
:101E2000ECCFEAE02E9E200D1124222E689435F886
:101E3000E4CF8E3229F436FC04C1689436F8DDCF45
:101E40008C3619F4689437F8D8CF8836B1F2982FC9
:101E50009F7D95549330E0F08336A1F18337C1F133
:101E6000833509F063C02801F2E04F0E511CF801E0
:101E7000C080D180692D70E036FC02C06FEF7FEF2B
:101E8000C6010E948B104C01689437F882010AC089
:101E90000C5F1F4FFFE3F98388248394912C650125
:101EA000E89437F833FE2DC0522C8114910471F55B
:101EB000552009F468CFB70180E290E00E94A1109C
:101EC0005A94F6CFF801808189830E5F1F4FE4CFCB
:101ED0002801F2E04F0E511CF801C080D180692D1D
:101EE00070E036FC02C06FEF7FEFC6010E949610D3
:101EF0004C018201D5CFB70180E290E00E94A11091
:101F00002A942814190409F0B0F7CECFF60137FC53
:101F1000859137FE81916F01B70190E00E94A11079
:101F200051105A94F1E08F1A9108BFCF843619F0FE
:101F3000893609F077C0F80137FE6BC06081718186
:101F4000828193810C5F1F4FF32DFF763F2E97FF09
:101F500009C090958095709561957F4F8F4F9F4FE9
:101F6000689437F82AE030E0A5010E94D110C82E0D
:101F7000CA188C2C432C36FE0CC0E89440F8C914C7
:101F800040F434FE05C032FC03C0F32DFE7E4F2E1C
:101F9000892C44FE95C0FE01EC0DF11D808180333B
:101FA00009F087C0242D297E422E842D8870582E5A
:101FB00043FC95C040FE8FC09C2C821418F42C0C5E
:101FC000922C981844FE91C0B70180E390E00E94E3
:101FD000A11042FE09C088E790E041FE02C088E5FA
:101FE00090E0B7010E94A110C91408F48AC0CA94F5
:101FF000D12C9FEFC91AD90ACA0CDB1CF6018291B9
:102000006F01B70190E00E94A110AC14BD04B1F7BC
:102010004FCF60817181072E000C880B990B0E5FEA
:102020001F4F92CFD32CE894D4F82AE030E08537C4
:1020300039F1232D297FD22E8F3601F148F48835CE
:10204000A9F0F701868197812B96E2E10C944B1160
:10205000803749F08837A9F7D4FE02C06894D2F8D7
:1020600020E130E00DC06894D4F8F6CF34FE03C010
:10207000822F8660D82E20E132E002C028E030E0D6
:10208000F801D7FE0FC060817181828193810C5F5E
:102090001F4FA5010E94D110C82ECA183D2CE894EC
:1020A00037F867CF6081718190E080E00E5F1F4F4D
:1020B000F0CF42FC02C0839478CF8394839475CF91
:1020C000842D867809F471CFF6CFB70180E290E0D5
:1020D0000E94A11083948214C0F3512C73CF522C10
:1020E0005818821408F46ECFF8CF842D867809F43E
:1020F0007BCF8BE241FE80E247FC8DE2B70190E0AE
:1021000071CFB70180E390E00E94A1109A946CCF48
:102110008FEF9FEF99CFFC01059061507040011047
:10212000D8F7809590958E0F9F1F0895FC01615000
:10213000704001900110D8F7809590958E0F9F1FE9
:1021400008950F931F93CF93DF93182F092FEB015F
:102150008B8181FD09C01FEF0FEF812F902FDF9141
:10216000CF911F910F91089582FF14C02E813F815E
:102170008C819D81281739073CF4E881F981CF01D2
:1021800001969983888310838E819F8101969F8316
:102190008E83E3CFE885F985812F0995892BA1F3FB
:1021A000DACFFA01AA27283051F1203181F1E894E1
:1021B0006F936E7F6E5F7F4F8F4F9F4FAF4FB1E03A
:1021C0003ED0B4E03CD0670F781F891F9A1FA11D35
:1021D000680F791F8A1F911DA11D6A0F711D811D36
:1021E000911DA11D20D009F468943F912AE0269FFB
:1021F00011243019305D3193DEF6CF010895462F5A
:102200004770405D4193B3E00FD0C9F7F6CF462F3A
:102210004F70405D4A3318F0495D31FD40524193A3
:1022200002D0A9F7EACFB4E0A69597958795779560
:102230006795BA95C9F700976105710508959B01E7
:10224000AC010A2E06945795479537952795BA9570
:10225000C9F7620F731F841F951FA01D08952F9249
:102260003F924F925F926F927F928F929F92AF9226
:10227000BF92CF92DF92EF92FF920F931F93CF9373
:10228000DF93CDB7DEB7CA1BDB0B0FB6F894DEBF0A
:102290000FBECDBF09942A88398848885F846E8430
:1022A0007D848C849B84AA84B984C884DF80EE807A
:1022B000FD800C811B81AA81B981CE0FD11D0FB683
:1022C000F894DEBF0FBECDBFED01089510E0C2E669
:1022D000D0E004C0FE010E94880E2196C336D107CB
:0622E000C9F7F894FFCFDE
:1022E60019FCFFFF040E1F0404041C00060909095B
:1022F6001F11111F00181C1E1E1C1800010A0000C9
:102306000001010100000000FC048D00AA02A902E0
:102316004F4E004F46460053494E00545249005313
:1023260051520046524551300046524551310048FF
:102336007A0046756E6374696F6E2047656E004657
:1023460069726D776172652000382E313600663D00
:102356000025732530386C7500486F6C6420746FE7
:102366002073656C6563742E00465245515F524575
:10237600473000465245515F5245473100496E731A
:0A23860074616E74004D6F64650011
:00000001FF
