:100000000C9463000C948B000C948B000C948B006C
:100010000C948B000C948B000C948B000C948B0034
:100020000C948B000C948B000C948B000C94690640
:100030000C948B000C948B000C948B000C948B0014
:100040000C941F060C948B000C948B000C948B006A
:100050000C948B000C948B000C948B000C948B00F4
:100060000C948B000C948B000000000025002800ED
:100070002B0000000008000201000003040700003C
:1000800000000000000000000000240027002A00FB
:10009000010204081020408001020408102001021F
:1000A000040810200000000023002600290004049A
:1000B0000404040404040202020202020303030310
:1000C00003039706670C11241FBECFEFD8E0DEBFF5
:1000D000CDBF22E0ACE9B1E001C01D92A131B20771
:1000E000E1F711E0A0E0B1E0EEE0F7E202C0059038
:1000F0000D92AC39B107D9F710E0C2E6D0E004C0E8
:100100002197FE010E94E10EC136D107C9F70E9476
:100110001B070C947A130C940000AF92BF92CF92FD
:10012000DF92EF92FF920F931F93CF93DF936C01B7
:100130007B018B01040F151FEB015E01AE18BF0898
:10014000C017D10759F06991D601ED91FC9101904A
:10015000F081E02DC6010995892B79F7C501DF9162
:10016000CF911F910F91FF90EF90DF90CF90BF90B4
:10017000AF900895833081F028F4813099F0823077
:10018000A9F008958730A9F08830C9F08430B1F41F
:10019000809180008F7D03C0809180008F77809355
:1001A0008000089584B58F7784BD089584B58F7DD0
:1001B000FBCF8091B0008F778093B000089580913D
:1001C000B0008F7DF9CF1F93CF93DF93282F30E0BE
:1001D000F901EE58FF4F8491F901E057FF4FD49198
:1001E000F901E255FF4FC491CC23A9F0162F8111DC
:1001F0000E94BA00EC2FF0E0EE0FFF1FE859FF4F0E
:10020000A591B4918FB7F894EC91111108C0D095D5
:10021000DE23DC938FBFDF91CF911F910895DE2BFA
:10022000F8CF1F93CF93DF93EC0160E08091E8015A
:100230000E94E3008091E901882309F452C0809173
:10024000C501882361F08FB7F8949091C501913072
:10025000B9F59DB39093C4019DB39DBB8FBF88E555
:100260008CBD81E08DBD60E08091E8010E94E300DB
:100270009C2F8D2F0CB405FC26C0DEBD00000DB4F4
:1002800007FEFDCF8EB59EBD00000DB407FEFDCF6D
:100290008EB561E08091E8010E94E3008091C50184
:1002A000882351F09FB7F8942091C5018091C40133
:1002B0002130A9F48DBB9FBFDF91CF911F9108958D
:1002C0008093C401CCCFCEBD00000DB407FEFDCF9E
:1002D0009EB58EBD00000DB407FEFDCFD9CF8FBFF8
:1002E000EBCF60E08091E8010E94E30010E16D2F08
:1002F000661F6627661F8091E6010E94E30060E0AA
:100300008091E7010E94E30061E08091E7010E9493
:10031000E300CC0FDD1F115051F760E08091E60142
:100320000E94E30061E08091E801DF91CF911F918D
:100330000C94E3009093D9018093D8012091C601D9
:100340003091C70182309105D1F078F40197A9F07E
:10035000206C3093C7012093C6018091C601909113
:10036000C7010E94110181E008958330910551F089
:10037000049771F72F712260ECCF2D71EACF2D73A6
:100380002862E7CF25732062E4CF0F931F93CF93AA
:10039000DF93EC01CB01BA01FE01EE0FFF1FEE0F60
:1003A000FF1FE652FE4F608371838283938320E0B8
:1003B00030E040E85DE40E94BC0C20E23CEB4EEBF8
:1003C0005BE40E941E0E20E030E040E05FE30E940C
:1003D000B20D0E94900E8E01000F111F000F111F11
:1003E000F801EA53FE4F62837383848395832197D8
:1003F00009F1C0E0D0E47F73CB018C2B9D2B0E94D0
:100400001101F801EA53FE4F82819381A481B581E5
:100410002EE0B695A795979587952A95D1F79F7366
:100420008C2B9D2B0E94110181E0DF91CF911F91B8
:100430000F910895C0E0D0E8DECFCF93DF9390E036
:10044000FC01E057FF4F249182559F4FFC0184919E
:100450008823D1F090E0880F991FFC01EA57FF4FE5
:10046000A591B491FC01E859FF4FC591D491623038
:1004700071F49FB7F8943C91822F809583238C93DD
:10048000E8812E2B28839FBFDF91CF9108958FB7EE
:10049000F894EC912E2B2C938FBFF6CF3FB7F894A6
:1004A0008091AD019091AE01A091AF01B091B001EA
:1004B00026B5A89B05C02F3F19F00196A11DB11DBF
:1004C0003FBFBA2FA92F982F8827BC01CD01620FFB
:1004D000711D811D911D42E0660F771F881F991FB6
:1004E0004A95D1F708958F929F92AF92BF92CF9283
:1004F000DF92EF92FF920E944E024B015C0188EE68
:10050000C82E83E0D82EE12CF12C0E944E026819EF
:1005100079098A099B09683E734081059105A8F312
:1005200021E0C21AD108E108F10888EE880E83E0C4
:10053000981EA11CB11CC114D104E104F10429F7D7
:10054000FF90EF90DF90CF90BF90AF909F908F90F3
:100550000895089590E080E00895CF93DF93E6E753
:10056000F0E08491E4E9F0E0D491E2EBF0E0C491B2
:10057000CC23A9F081110E94BA00EC2FF0E0EE0F1D
:10058000FF1FEC55FF4FA591B491EC918091A30111
:10059000ED2329F0811145C0DF91CF91089580911D
:1005A000A301811116C081E08093A3012FB7F894B5
:1005B0008091A9019091AA01A091AB01B091AC01E9
:1005C0002FBF80939F019093A001A093A101B093AE
:1005D000A2012FB7F8948091A9019091AA01A0914E
:1005E000AB01B091AC012FBF40919F015091A00190
:1005F0006091A1017091A201841B950BA60BB70B12
:10060000853F9140A105B10538F280919E0181118D
:10061000C3CF81E080939E011092BB018093C20101
:10062000BBCF80919E01882329F010929E011092E9
:10063000A301B2CF81E08093BB018093C201F7CFC9
:10064000FC0144815581608171818AEE91E00C94B6
:100650008D000F931F93A2E0B2E0ED91FD91808198
:10066000ED91FD919081ED91FD916C9163708E23E0
:1006700009F064609F2309F06860E9E4F3E0E60FA5
:10068000F11D659565956D936D917D918D919D9110
:10069000099423C01AC012C016C010C01EC009C0E1
:1006A00014C013C006C019C009C00DC007C00DC0DA
:1006B00014C062507040804090400BC06150704048
:1006C0008040904006C06E5F01C06F5F7F4F8F4FCC
:1006D0009F4F9E938E937E936E934091090250910B
:1006E0000A0260910B0270910C02009100011091BE
:1006F000010120910201309103010417150726071B
:10070000370729F180919C0190919D01019690936A
:100710009D0180939C01049791F440175107620753
:100720007307C4F482E090E09093BF018093BE0110
:1007300081E08093C30110929D0110929C0140932F
:1007400000015093010160930201709303011F9116
:100750000F91089581E090E09093BF018093BE01D6
:10076000E8CFCF93DF93EC0160E08E810E94E3003D
:1007700061E08E810E94E30060E08E810E94E300D0
:100780008BE891E00197F1F7DF91CF910895CF9237
:10079000DF92EF92FF920F931F93CF93DF936C0141
:1007A0007C0187E0E80EF11CD0E0C0E0062F10E0ED
:1007B000B8010C2E02C0759567950A94E2F7617036
:1007C000F70181917F010E94E3002196C430D10599
:1007D00079F7C601DF91CF911F910F91FF90EF90B4
:1007E000DF90CF900C94B103CF92DF92EF92FF9203
:1007F0000F931F93CF93DF93EC01F62E642F8C8120
:100800000E94E3008D818F3F19F060E00E94E300B9
:100810000F2D10E08F8584FF25C06E0187E0C80E84
:10082000D11CF12CE12CB8010E2C02C075956795F6
:100830000A94E2F76170F60181916F010E94E30072
:10084000FFEFEF1AFF0A88E0E816F10461F7CE0126
:10085000DF91CF911F910F91FF90EF90DF90CF909C
:100860000C94B103B80184E0759567958A95E1F71A
:10087000CE010E94C7036F2DCE01DF91CF911F9152
:100880000F91FF90EF90DF90CF900C94C70340E062
:10089000682F8AEE91E00C94F40381E00E944704F3
:1008A0008BE39FE10197F1F70895CF93DF936230D7
:1008B00028F09091F90198609093F9016093FD01FF
:1008C0001092FE0190E49093FF0180930002805CFF
:1008D0008093010261E08091EE010E941D028091EF
:1008E000EF018F3F19F061E00E941D0261E08091ED
:1008F000F0010E941D02CAEED1E09E012A5E314045
:100900008091F90184FD0BC084E090E021962817C6
:10091000390744F461E08E810E941D02EECF88E029
:1009200090E0F4CF8BE39DE00197F1F760E08091D8
:10093000EE010E94E30060E08091F0010E94E3007C
:100940008091EF018F3F19F060E00E94E3008091F9
:10095000F90184FD34C063E08AEE91E00E94C70390
:10096000CBE4D6E4CE010197F1F763E08AEE91E0A3
:100970000E94C7032197F1F763E08AEE91E00E949D
:10098000C70383E592E00197F1F762E08AEE91E018
:100990000E94C7038091F90180620E94470484E0AD
:1009A0008093FA018CE00E9447040E944D0482E08B
:1009B0008093FB0186E0DF91CF910C944704806225
:1009C0000E9447048BE496E40197F1F78091F901C6
:1009D00080620E94470483E592E00197F1F78091DD
:1009E000F90180620E944704D5CF9091FD016917FB
:1009F00010F06FEF690FE62FF0E0E651FE4F94899B
:100A0000890F80680C94470441E00E94F40381E060
:100A100090E00895FC0101900020E9F73197AF01C3
:100A2000481B590BBC018AEE91E00C948D0080911B
:100A30001A0161E0882339F08EE00E94F5048DE20E
:100A400091E00C940A058DE00E94F50480E391E0AA
:100A5000F8CF61E0882359F081E00E94F50480918D
:100A6000B301811106C084E391E00C940A0580E093
:100A7000F4CF8AE391E0F9CFFC0180819181009766
:100A800011F00C94830F0895EF92FF920F931F9330
:100A9000CF93DF93EC017B01198218821B821A82AB
:100AA0001D821C82FB0101900020E9F731978F0124
:100AB000061B170BB8016F5F7F4F90E080E00E942C
:100AC0000C100097B9F0998388831B830A832C81CB
:100AD0003D81232B11F4FC0110821D830C83B7018F
:100AE00088819981DF91CF911F910F91FF90EF90B5
:100AF0000C94D21088819981009711F00E94830F85
:100B0000198218821D821C821B821A82DF91CF916A
:100B10001F910F91FF90EF900895CF93DF9300D036
:100B200000D000D0CDB7DEB760E08DE00E94F504C4
:100B30008091B5019091B60160E471E0009731F0C9
:100B400064E471E0019711F068E471E0CE01019670
:100B50000E944405CE0101960E942003CE01019619
:100B60000E943C0526960FB6F894DEBF0FBECDBF9F
:100B7000DF91CF910895CF92DF92EF92FF920F9382
:100B80001F93CF93DF93CDB7DEB7A1970FB6F8943D
:100B9000DEBF0FBECDBF60E0882309F44EC081E008
:100BA0000E94F50420911501309116014091170122
:100BB0005091180119A28E010F5D1F4F8AE0C82EB7
:100BC000D12CE12CF12CCA01B901A70196010E9498
:100BD000BF0E605DF80162938F012115310541055B
:100BE000510589F7309761F001900020E9F73197BE
:100BF000AF01401B510BB8018AEE91E00E948D00BD
:100C00006CE471E0CE0101960E944405CE0101968C
:100C10000E942003CE0101960E943C05A1960FB6CA
:100C2000F894DEBF0FBECDBFDF91CF911F910F9122
:100C3000FF90EF90DF90CF90089580E0B1CF1F92AA
:100C40000F920FB60F9211242F933F938F939F9380
:100C5000AF93BF938091A9019091AA01A091AB019C
:100C6000B091AC013091A80123E0230F2D3758F546
:100C70000196A11DB11D2093A8018093A901909315
:100C8000AA01A093AB01B093AC018091AD0190910A
:100C9000AE01A091AF01B091B0010196A11DB11DAF
:100CA0008093AD019093AE01A093AF01B093B001DA
:100CB000BF91AF919F918F913F912F910F900FBE58
:100CC0000F901F90189526E8230F0296A11DB11DC5
:100CD000D2CF1F920F920FB60F9211242F933F93F2
:100CE0004F935F936F937F938F939F93AF93BF9334
:100CF000EF93FF930E9429030E94AD021092A70177
:100D00001092A6011092A5011092A401FF91EF91FB
:100D1000BF91AF919F918F917F916F915F914F9113
:100D20003F912F910F900FBE0F901F901895CF936A
:100D3000DF931092ED011092EC0185E291E0909327
:100D4000EB018093EA0185E08093EE018FEF8093C1
:100D5000EF0186E08093F00187E08093F10188E065
:100D60008093F20189E08093F3018CE08093F40199
:100D70001092F5011092F6011092F7011092F8010D
:100D80001092F90161E080E10E9455048BE08093AC
:100D9000E6018DE08093E7018AE08093E8011092FC
:100DA000E90162E082E00E941D0262E083E00E94AD
:100DB0001D02E0EBF0E0E491F0E0EE0FFF1FEC55D8
:100DC000FF4FA591B491B0930302A0930202E2E910
:100DD000F0E0449140930602E1EBF0E0E491F0E0B2
:100DE000EE0FFF1FEC55FF4FC591D491D093050234
:100DF000C0930402E3E9F0E0E491E093070210926B
:100E0000090210920A0210920B0210920C022BE3BC
:100E10003FE1C9010197F1F79C91842F892391E06B
:100E200009F490E08881E82309F092609093080229
:100E3000DF91CF910895CF93DF93CDB7DEB76A9757
:100E40000FB6F894DEBF0FBECDBF789484B5826034
:100E500084BD84B5816084BD85B5826085BD85B55E
:100E6000816085BD80916E00816080936E001092DC
:100E70008100809181008260809381008091810057
:100E800081608093810080918000816080938000E8
:100E90008091B10084608093B1008091B000816046
:100EA0008093B00080917A00846080937A00809172
:100EB0007A00826080937A0080917A0081608093CA
:100EC0007A0080917A00806880937A001092C10045
:100ED00062E084E00E941D0262E080E10E9455040D
:100EE0008091E901882309F45DC11FB7F8948091CE
:100EF000B101811127C0E8EBF0E08491EAE9F0E06C
:100F00009491E82FF0E0EE0FFF1FEA57FF4FA591F5
:100F1000B491EC91E92321F461E08AE00E94E300BE
:100F200061E08AE00E941D028CB580618CBD8CB5A9
:100F300080648CBD61E08DE00E941D0261E08BE069
:100F40000E941D028091B1018F5F8093B1011FBF8C
:100F500061E08091E8010E941D0261E08091E8015A
:100F60000E94E30080E091E29093C7018093C60164
:100F70000E94110140E050E06AE774E490E080E0F4
:100F80000E94C50140E050E06AE774E481E090E02F
:100F90000E94C5011092E3011092E2011092D0016B
:100FA0001092D1011092D2011092D30180E090EC06
:100FB0000E9411011092E5011092E4011092D401F7
:100FC0001092D5011092D6011092D70180E090EED8
:100FD0000E9411018091C6019091C7019E7F90935C
:100FE000C7018093C6010E94110181E090E00E9438
:100FF0009A018091C6019091C701977F9093C70194
:101000008093C6010E9411018091C6019091C70191
:101010009B7F9093C7018093C6010E94110180E4D9
:101020000E9447040CE011E054E1E52E51E0F52E5A
:10103000F80161918F018AEE91E00E940405E016AB
:10104000F106B1F788E40E94470404E011E0F801DA
:1010500061918F018AEE91E00E940405F1E00C306D
:101060001F07A9F7F8941092800088E08093810010
:101070008091810083608093810088E190E090936B
:1010800089008093880010928500109284008091DE
:101090006F00826080936F00789460E080E00E942F
:1010A000F5046FE471E08E010F5F1F4FC8010E94CD
:1010B0004405C8010E942003C8010E943C0561E06C
:1010C00080E00E94F5046CE571E0C8010E944405CF
:1010D000C8010E942003C8010E943C0566E671E039
:1010E000C8010E944405C8010E942003C8010E9453
:1010F0003C050E9473020E9473021092C10110927B
:10110000C0011092B6011092B5011092BA0110926E
:10111000B9011092BD011092BC010E94AD020E9463
:1011200029030E944D0480E00E94BB0580E00E94DC
:1011300029050E948D050E9417058CE6E82E81E0A6
:10114000F82E9FE6C92E91E0D92E20E0622E20E0F5
:10115000722E37E0A32EB12C45E0842E912C809185
:10116000C301811104C08091C2018823A9F00E94AB
:101170004D048091C0019091C1018230910509F424
:1011800055C204F5009709F454C0019709F405C14C
:101190001092C2011092C3016114710401F30E9404
:1011A0000000DDCF61E08091E6010E941D0260E059
:1011B0008091E7010E94E30061E08091E7010E94D5
:1011C0001D02C6CE8430910509F422C30CF4D6C2A8
:1011D0000597F1F68091C201882339F08091BB0117
:1011E000882309F456C31092C2018091C301882359
:1011F00069F08091BE019091BF018130910509F0A5
:1012000060C381E08093B2011092C30160E081E08D
:101210000E94F50487E891E00E940A0561E081E000
:101220000E94F50481E991E00E940A058091B201D3
:10123000D1C28091C3018823E9F08091BC019091D3
:10124000BD012091BE013091BF012130310519F55A
:1012500001969093BD018093BC018091BC01909157
:10126000BD0185309105E1F41092BD011092BC01E1
:101270001092C3018091BC019091BD010097C9F407
:1012800080E00E94BB0580E00E9429050E948D0538
:101290000E9417057DCF22303105F9F60197D9CF8D
:1012A000019631F784E090E09093BD018093BC01FA
:1012B000DFCF8130910599F42091C201222341F0C2
:1012C0002091BB01222321F09093C1018093C001A2
:1012D00060E08AEE91E00E94040581E0D2CF823086
:1012E0009105C9F42091C201222341F02091BB0154
:1012F000222321F09093C1018093C00180E00E94DD
:10130000BB0560E08CE00E94F50460E08AEE91E0AD
:101310000E940405B8CF83309105F1F42091C201F9
:10132000222341F02091BB01222321F09093C1019F
:101330008093C00180E00E94BB0581E00E942905E6
:101340000E948D0561E080E00E94F50460E08AEE75
:1013500091E00E9404059CCF8430910509F018CFDC
:101360002091C201222341F02091BB01222321F0D0
:101370009093C1018093C00180E00E94BB0580E092
:101380000E9429050E948D0580911A0161E0882341
:1013900011F08DE0D9CF8CE0D7CF8091C2018823A6
:1013A00069F08091BB011092C201882309F471C0D9
:1013B0008091190191E08927809319018091C301DF
:1013C000882309F1E091B901F091BA012091BE01A1
:1013D0003091BF0180911901811172C02130310516
:1013E00009F060C03196F093BA01E093B9018091A1
:1013F000B9019091BA018830910509F059C0109255
:10140000BA011092B9018091B9019091BA01883066
:10141000910509F003C11092BA011092B9018091AF
:1014200018018F93809117018F93809116018F93EC
:10143000809115018F93FF92EF92DF92CF921F93CD
:101440000F930E94D910C8010E940A056CE471E054
:10145000CE0145960E944405CE0145960E94200388
:10146000CE0145960E943C0561E080E00E94F504B3
:101470008091B90161E08E5F0E94F50461E08AEE1F
:1014800091E00E9404050FB6F894DEBF0FBECDBFF9
:101490007FCE1092BD011092BC019092C10180924A
:1014A000C00165CE2230310509F0A1CF31979BCF25
:1014B000019609F0B4CFB092BA01A092B901A3CFBE
:1014C0008091150190911601A0911701B09118011A
:1014D0002130310509F053C0E830F105C0F4ED5872
:1014E000F54F0C94E10E7B0A9E0AA30AA80AAD0AE6
:1014F000B20AB70ABB0A80589946A746BF4F8093E5
:10150000150190931601A0931701B09318018091D3
:10151000150190911601A0911701B0911801813821
:101520009649A849B10508F46ECF109215011092A2
:101530001601109217011092180165CF805C9D4B27
:10154000A04FBF4FDCCF80569947AE4FBF4FD7CF8C
:10155000805F984DAF4FBF4FD2CF88519C4FAF4F58
:10156000BF4FCDCF8C599F4FAF4FBF4FC8CF0A96BB
:10157000A11DB11DC4CF0196A11DB11DC0CF223048
:10158000310509F040CFE830F105C0F4E653F54FDE
:101590000C94E10ED20AED0AF20AF70AFC0A010BDA
:1015A000060B0A0B80589649A849B109809315018A
:1015B00090931601A0931701B09318018091150123
:1015C00090911601A0911701B091180181389649A8
:1015D000A849B10508F0A9CF16CF80549244AF4076
:1015E000B109E4CF805A9648A140B109DFCF8051BC
:1015F0009742A109B109DACF885E9340A109B109E8
:10160000D5CF84569109A109B109D0CF0A97A10974
:10161000B109CCCF0197A109B109C8CF019609F052
:10162000FECEB092BA01A092B901F9CE8091C2016A
:10163000882339F08091BB01882309F457C01092A8
:10164000C2018091C3018823F9F02091BE0130913D
:10165000BF018091B7019091B8012130310509F0A7
:1016600070C001969093B8018093B7018091B70143
:101670009091B8018330910509F069C01092B801CA
:101680001092B7011092C30160E081E00E94F5045E
:1016900080E491E00E940A0560E086E00E94F50483
:1016A00084E491E00E940A0560E08CE00E94F50469
:1016B00088E491E00E940A0561E080E00E94F50460
:1016C00087E791E00E940A058091B7019091B801E7
:1016D0008130910509F445C08230910509F44BC071
:1016E000892B09F042C060E080E03DC08091B701E5
:1016F0009091B8019093B6018093B50120911A01A1
:101700002223E1F0009779F481E090E00E949A01B1
:101710001092C2011092BD011092BC011092C10141
:101720001092C00124CD8130910519F484E090E03D
:10173000EDCF029769F782E090E0E8CF90E080E09B
:10174000E5CF2230310509F091CF01978BCF01967B
:1017500009F098CF82E090E09093B8018093B701B0
:1017600091CF60E085E00E94F50460E08AEE91E0B0
:101770000E9404050DCD60E08BE0F5CF8091C201A1
:10178000882331F08091BB01882349F11092C20176
:101790008091C301882361F08091BE019091BF01C7
:1017A0008130910581F581E08093B4011092C301ED
:1017B00060E081E00E94F50487E891E00E940A055C
:1017C00061E081E00E94F50481E991E00E940A0550
:1017D0008091B401882309F486CF61E085CF209100
:1017E000B4012093B3018091C6019091C7012111EA
:1017F00008C0977F9093C7018093C6010E94110192
:1018000087CF9860F7CF029789F61092B401CECFB8
:101810008091C201882331F08091BB01882341F17E
:101820001092C2018091C301882361F08091BE01B2
:101830009091BF018130910539F581E080931401C9
:101840001092C30160E081E00E94F5048DE291E016
:101850000E940A0561E081E00E94F50480E391E0C6
:101860000E940A0580911401882309F4B6CF3BCF6A
:101870008091140180931A01882309F45FCF80912D
:10188000B5019091B6013ECF0297D1F610921401A6
:10189000D7CF609115017091160180911701909139
:1018A00018010E947F0CAB01BC018091B201811133
:1018B00005C090E080E00E94C5012ACF81E090E061
:1018C000FACF029709F0A0CC1092B2019DCC809182
:1018D000E901882399F09FB7F8948091B10188239A
:1018E00019F081508093B1018091B101811105C03F
:1018F0008CB58F7B8CBD1092C5019FBF0895E89475
:1019000009C097FB3EF490958095709561957F4F47
:101910008F4F9F4F9923A9F0F92F96E9BB279395F5
:10192000F695879577956795B795F111F8CFFAF405
:10193000BB0F11F460FF1BC06F5F7F4F8F4F9F4F36
:1019400016C0882311F096E911C0772321F09EE894
:10195000872F762F05C0662371F096E8862F70E0FA
:1019600060E02AF09A95660F771F881FDAF7880FD4
:101970009695879597F908950E94CF0C0C94400D89
:101980000E94320D38F00E94390D20F0952311F09D
:101990000C94290D0C942F0D11240C94740D0E949D
:1019A000510D70F3959FC1F3950F50E0551F629F45
:1019B000F001729FBB27F00DB11D639FAA27F00DA8
:1019C000B11DAA1F649F6627B00DA11D661F829FCF
:1019D0002227B00DA11D621F739FB00DA11D621FB4
:1019E000839FA00D611D221F749F3327A00D611DD1
:1019F000231F849F600D211D822F762F6A2F1124B3
:101A00009F5750409AF0F1F088234AF0EE0FFF1FE5
:101A1000BB1F661F771F881F91505040A9F79E3F3C
:101A2000510580F00C94290D0C94740D5F3FE4F384
:101A3000983ED4F3869577956795B795F795E79592
:101A40009F5FC1F7FE2B880F911D9695879597F99B
:101A5000089597F99F6780E870E060E008959FEF30
:101A600080EC089500240A94161617061806090635
:101A7000089500240A941216130614060506089504
:101A8000092E0394000C11F4882352F0BB0F40F48C
:101A9000BF2B11F460FF04C06F5F7F4F8F4F9F4FCC
:101AA000089557FD9058440F551F59F05F3F71F04E
:101AB0004795880F97FB991F61F09F3F79F08795B5
:101AC0000895121613061406551FF2CF4695F1DF3E
:101AD00008C0161617061806991FF1CF86957105CE
:101AE000610508940895E894BB2766277727CB0102
:101AF00097F908952F923F924F925F926F927F9243
:101B00008F929F92AF92BF92CF92DF92EF92FF920D
:101B10000F931F93CF93DF93CDB7DEB7CA1BDB0BB9
:101B20000FB6F894DEBF0FBECDBF09942A8839885E
:101B300048885F846E847D848C849B84AA84B98465
:101B4000C884DF80EE80FD800C811B81AA81B98171
:101B5000CE0FD11D0FB6F894DEBF0FBECDBFED0185
:101B600008955058BB27AA270E94C90D0C94400D18
:101B70000E94320D38F00E94390D20F039F49F3F59
:101B800019F426F40C942F0D0EF4E095E7FB0C9459
:101B9000290DE92F0E94510D58F3BA1762077307F8
:101BA0008407950720F079F4A6F50C94730D0EF4D4
:101BB000E0950B2EBA2FA02D0B01B90190010C015D
:101BC000CA01A0011124FF27591B99F0593F50F475
:101BD000503E68F11A16F040A22F232F342F4427CD
:101BE000585FF3CF469537952795A795F0405395C5
:101BF000C9F77EF41F16BA0B620B730B840BBAF095
:101C00009150A1F0FF0FBB1F661F771F881FC2F7FF
:101C10000EC0BA0F621F731F841F48F48795779513
:101C20006795B795F7959E3F08F0B0CF9395880FCD
:101C300008F09927EE0F9795879508950E94320E28
:101C40000C94400D0E94390D58F00E94320D40F066
:101C500029F45F3F29F00C94290D51110C94740D57
:101C60000C942F0D0E94510D68F39923B1F3552365
:101C700091F3951B550BBB27AA276217730784079F
:101C800038F09F5F5F4F220F331F441FAA1FA9F335
:101C900035D00E2E3AF0E0E832D091505040E69523
:101CA000001CCAF72BD0FE2F29D0660F771F881F84
:101CB000BB1F261737074807AB07B0E809F0BB0B77
:101CC000802DBF01FF2793585F4F3AF09E3F51058B
:101CD00078F00C94290D0C94740D5F3FE4F3983E5A
:101CE000D4F3869577956795B795F7959F5FC9F774
:101CF000880F911D9695879597F90895E1E0660FF5
:101D0000771F881FBB1F621773078407BA0720F06D
:101D1000621B730B840BBA0BEE1F88F7E0950895D6
:101D20000E94590D88F09F5798F0B92F9927B75105
:101D3000B0F0E1F0660F771F881F991F1AF0BA956F
:101D4000C9F714C0B13091F00E94730DB1E008954D
:101D50000C94730D672F782F8827B85F39F0B93F3F
:101D6000CCF3869577956795B395D9F73EF4909522
:101D70008095709561957F4F8F4F9F4F0895A1E299
:101D80001A2EAA1BBB1BFD010DC0AA1FBB1FEE1FF5
:101D9000FF1FA217B307E407F50720F0A21BB30B40
:101DA000E40BF50B661F771F881F991F1A9469F7BC
:101DB00060957095809590959B01AC01BD01CF0118
:101DC0000895EE0FFF1F0590F491E02D09940F93F5
:101DD0001F93CF93DF938230910510F482E090E05F
:101DE000E0910F02F091100230E020E0B0E0A0E0BE
:101DF000309799F42115310509F44AC0281B390B95
:101E000024303105D8F58A819B816115710589F1EE
:101E1000FB0193838283FE0111C0408151810281C5
:101E2000138148175907E0F04817590799F410979C
:101E300061F012960C93129713961C933296CF0171
:101E4000DF91CF911F910F91089500930F0210938E
:101E50001002F4CF2115310551F04217530738F025
:101E6000A901DB019A01BD01DF01F801C1CFEF013A
:101E7000F9CF9093100280930F02CDCFFE01E20FB5
:101E8000F31F819391932250310939832883D7CF4F
:101E900020910D0230910E02232B41F420911D015F
:101EA00030911E0130930E0220930D0220911B01F0
:101EB00030911C012115310541F42DB73EB74091F9
:101EC0001F0150912001241B350BE0910D02F09170
:101ED0000E02E217F307A0F42E1B3F0B2817390759
:101EE00078F0AC014E5F5F4F2417350748F04E0F76
:101EF0005F1F50930E0240930D02819391939FCFE9
:101F0000F0E0E0E09CCFCF93DF930097E9F0FC0195
:101F1000329713821282A0910F02B0911002ED014C
:101F200030E020E01097A1F420813181820F931FCF
:101F300020910D0230910E022817390709F061C077
:101F4000F0930E02E0930D02DF91CF910895EA0124
:101F5000CE17DF07E8F54A815B819E0141155105E7
:101F6000B1F7E901FB83EA8349915991C40FD51F69
:101F7000EC17FD0761F4808191810296840F951F13
:101F8000E90199838883828193819B838A83F0E02E
:101F9000E0E012968D919C9113970097B9F52D91E1
:101FA0003C911197CD010296820F931F20910D0253
:101FB00030910E022817390739F6309751F51092F3
:101FC000100210920F02B0930E02A0930D02BCCF2C
:101FD000D383C28340815181840F951FC817D907CD
:101FE00061F44E5F5F4F88819981480F591F51837B
:101FF00040838A819B81938382832115310509F077
:10200000B0CFF0931002E0930F029ECFFD01DC01F0
:10201000C0CF13821282D7CFB0E0A0E0E2E1F0E1BE
:102020000C947C0D8C01009751F4CB010E94E70EBB
:102030008C01C801CDB7DEB7E0E10C94980DFC012E
:10204000E60FF71F9C0122503109E217F30708F44D
:102050009DC0D901CD91DC911197C617D70798F093
:10206000C530D10530F3CE0104978617970708F3E2
:10207000C61BD70B2297C193D1936D937C93CF014D
:102080000E94830FD6CF5B01AC1ABD0A4C018C0EA7
:102090009D1EA0910F02B0911002512C412CF12CE9
:1020A000E12C109731F580910D0290910E02881568
:1020B000990509F05CC04616570608F058C0809193
:1020C0001B0190911C01009741F48DB79EB7409180
:1020D0001F0150912001841B950BE817F90708F0A8
:1020E00055C0F0930E02E0930D02F90171836083F5
:1020F000A0CF8D919C91119712966C901297139688
:102100007C901397A815B90559F56C0142E0C40EEF
:10211000D11CCA14DB0420F1AC014A195B09DA01B5
:102120001296159780F06282738251834083D901A1
:102130006D937C93E114F10471F0D7011396FC9335
:10214000EE93129776CF22968C0F9D1FF901918303
:102150008083F301EFCFF0931002E0930F0269CF79
:102160004816590608F42C017D01D3019ACFCB0102
:102170000E94E70E7C01009749F0AE01B8010E9471
:10218000C910C8010E94830F870153CF10E000E0FF
:1021900050CFFB01DC0102C001900D924150504034
:1021A000D8F70895FB01DC0101900D920020E1F7C2
:1021B0000895AEE0B0E0EFEDF0E10C94880D0D89EC
:1021C0001E8986E08C831A8309838FEF9FE79E83A5
:1021D0008D83AE01475E5F4F6F89788DCE0101968A
:1021E0000E94FC102F813885020F131FF801108206
:1021F0002E96E4E00C94A40DABE0B0E0E2E0F1E157
:102200000C947A0D7C013B018A01FC011782168235
:10221000838181FFC8C1CE0101965C01F7019381E2
:10222000F30193FD859193FF81913F01882309F488
:1022300053C1853239F493FD859193FF81913F011C
:10224000853229F4B70190E00E94EC12E7CF912C7F
:10225000212C312CFFE1F31538F08B3211F190F481
:10226000803209F1833229F137FC3CC020ED280F80
:102270002A3050F536FE20C08AE0989E200D1124A9
:10228000922E06C08D3291F0803371F7689430F849
:10229000F30193FD859193FF81913F018111DACF85
:1022A00021C0689431F8689432F8F2CF689433F81A
:1022B000EFCF689434F8ECCFEAE02E9E200D112485
:1022C000222E689435F8E4CF8E3229F436FC04C10E
:1022D000689436F8DDCF8C3619F4689437F8D8CF87
:1022E0008836B1F2982F9F7D95549330E0F0833675
:1022F000A1F18337C1F1833509F063C02801F2E011
:102300004F0E511CF801C080D180692D70E036FC61
:1023100002C06FEF7FEFC6010E94D6124C01689495
:1023200037F882010AC00C5F1F4FFFE3F98388244E
:102330008394912C6501E89437F833FE2DC0522C1C
:102340008114910471F5552009F468CFB70180E23A
:1023500090E00E94EC125A94F6CFF80180818983B4
:102360000E5F1F4FE4CF2801F2E04F0E511CF80121
:10237000C080D180692D70E036FC02C06FEF7FEF26
:10238000C6010E94E1124C018201D5CFB70180E263
:1023900090E00E94EC122A942814190409F0B0F776
:1023A000CECFF60137FC859137FE81916F01B701E1
:1023B00090E00E94EC1251105A94F1E08F1A9108AB
:1023C000BFCF843619F0893609F077C0F80137FE9F
:1023D0006BC060817181828193810C5F1F4FF32DEF
:1023E000FF763F2E97FF09C0909580957095619577
:1023F0007F4F8F4F9F4F689437F82AE030E0A50158
:102400000E941C13C82ECA188C2C432C36FE0CC0FC
:10241000E89440F8C91440F434FE05C032FC03C00F
:10242000F32DFE7E4F2E892C44FE95C0FE01EC0D4F
:10243000F11D8081803309F087C0242D297E422E32
:10244000842D8870582E43FC95C040FE8FC09C2C74
:10245000821418F42C0C922C981844FE91C0B701E9
:1024600080E390E00E94EC1242FE09C088E790E011
:1024700041FE02C088E590E0B7010E94EC12C91449
:1024800008F48AC0CA94D12C9FEFC91AD90ACA0C81
:10249000DB1CF60182916F01B70190E00E94EC1203
:1024A000AC14BD04B1F74FCF60817181072E000CD1
:1024B000880B990B0E5F1F4F92CFD32CE894D4F862
:1024C0002AE030E0853739F1232D297FD22E8F364F
:1024D00001F148F48835A9F0F701868197812B96A0
:1024E000E2E10C94960D803749F08837A9F7D4FEC5
:1024F00002C06894D2F820E130E00DC06894D4F8AE
:10250000F6CF34FE03C0822F8660D82E20E132E061
:1025100002C028E030E0F801D7FE0FC06081718171
:10252000828193810C5F1F4FA5010E941C13C82E4E
:10253000CA183D2CE89437F867CF6081718190E02C
:1025400080E00E5F1F4FF0CF42FC02C0839478CF33
:102550008394839475CF842D867809F471CFF6CF58
:10256000B70180E290E00E94EC1283948214C0F3E1
:10257000512C73CF522C5818821408F46ECFF8CF18
:10258000842D867809F47BCF8BE241FE80E247FC04
:102590008DE2B70190E071CFB70180E390E00E9437
:1025A000EC129A946CCF8FEF9FEF99CFFC010590BE
:1025B000615070400110D8F7809590958E0F9F1F45
:1025C0000895FC016150704001900110D8F780958A
:1025D00090958E0F9F1F08950F931F93CF93DF93B6
:1025E000182F092FEB018B8181FD09C01FEF0FEF21
:1025F000812F902FDF91CF911F910F91089582FF2E
:1026000014C02E813F818C819D81281739073CF4AD
:10261000E881F981CF0101969983888310838E81A7
:102620009F8101969F838E83E3CFE885F985812F73
:102630000995892BA1F3DACFFA01AA27283051F1A5
:10264000203181F1E8946F936E7F6E5F7F4F8F4FE3
:102650009F4FAF4FB1E03ED0B4E03CD0670F781F42
:10266000891F9A1FA11D680F791F8A1F911DA11D27
:102670006A0F711D811D911DA11D20D009F4689460
:102680003F912AE0269F11243019305D3193DEF608
:10269000CF010895462F4770405D4193B3E00FD0BE
:1026A000C9F7F6CF462F4F70405D4A3318F0495DA9
:1026B00031FD4052419302D0A9F7EACFB4E0A6958C
:1026C0009795879577956795BA95C9F700976105AE
:1026D000710508959B01AC010A2E06945795479504
:1026E00037952795BA95C9F7620F731F841F951FF9
:1026F000A01D089510E0C2E6D0E004C0FE010E94D3
:0E270000E10E2196C336D107C9F7F894FFCF3A
:10270E0019FCFFFF040E1F041C00000000181C1E05
:10271E001E1C1800010A00000001010000110280B9
:10272E00000000000004058D00AA02A9024F4E0011
:10273E004F464600465245513000465245513100F3
:10274E0053494E005452490053515200487A0046A4
:10275E00756E6374696F6E2047656E004669726DA3
:10276E00776172652000416C70686100663D0025DE
:10277E00732530386C7500486F6C6420746F20734D
:10278E00656C6563742E00465245515F5245473065
:0C279E0000465245515F52454731000093
:107E0000112484B714BE81FFF0D085E080938100F7
:107E100082E08093C00088E18093C10086E0809377
:107E2000C20080E18093C4008EE0C9D0259A86E02C
:107E300020E33CEF91E0309385002093840096BBD3
:107E4000B09BFECF1D9AA8958150A9F7CC24DD24C4
:107E500088248394B5E0AB2EA1E19A2EF3E0BF2EE7
:107E6000A2D0813461F49FD0082FAFD0023811F036
:107E7000013811F484E001C083E08DD089C08234E0
:107E800011F484E103C0853419F485E0A6D080C0E4
:107E9000853579F488D0E82EFF2485D0082F10E0AE
:107EA000102F00270E291F29000F111F8ED06801E7
:107EB0006FC0863521F484E090D080E0DECF843638
:107EC00009F040C070D06FD0082F6DD080E0C81688
:107ED00080E7D80618F4F601B7BEE895C0E0D1E017
:107EE00062D089930C17E1F7F0E0CF16F0E7DF06D8
:107EF00018F0F601B7BEE89568D007B600FCFDCFD4
:107F0000A601A0E0B1E02C9130E011968C91119780
:107F100090E0982F8827822B932B1296FA010C0160
:107F200087BEE89511244E5F5F4FF1E0A038BF0790
:107F300051F7F601A7BEE89507B600FCFDCF97BE46
:107F4000E89526C08437B1F42ED02DD0F82E2BD052
:107F50003CD0F601EF2C8F010F5F1F4F84911BD097
:107F6000EA94F801C1F70894C11CD11CFA94CF0C13
:107F7000D11C0EC0853739F428D08EE10CD085E9AC
:107F80000AD08FE07ACF813511F488E018D01DD067
:107F900080E101D065CF982F8091C00085FFFCCF94
:107FA0009093C60008958091C00087FFFCCF809118
:107FB000C00084FD01C0A8958091C6000895E0E648
:107FC000F0E098E1908380830895EDDF803219F02E
:107FD00088E0F5DFFFCF84E1DECF1F93182FE3DFCA
:107FE0001150E9F7F2DF1F91089580E0E8DFEE27F6
:047FF000FF270994CA
:027FFE00040479
:0400000300007E007B
:00000001FF
